:020000040800F2
:10000000980C002091010008BF2200080B20000876
:10001000BD2200088D0500080D2F0008000000001B
:10002000000000000000000000000000F5280008AB
:100030002D07000800000000F32800084D290008E3
:10004000AB010008AB010008AB010008AB010008E0
:10005000AB010008AB010008AB010008AB010008D0
:10006000AB010008AB010008AB010008AB010008C0
:10007000AB010008AB010008AB010008AB010008B0
:100080001507000821070008AB010008AB010008B4
:10009000AB010008AB010008AB010008AB01000890
:1000A000AB010008AB010008AB010008AB01000880
:1000B000AB010008AB010008AB010008AB01000870
:1000C000AB010008AB010008AB010008AB01000860
:1000D000AB0100085D2C0008692C0008AB0100088A
:1000E0002F070008AB010008AB01000800F002F880
:1000F00000F03FF80AA090E8000C82448344AAF183
:100100000107DA4501D100F034F8AFF2090EBAE880
:100110000F0013F0010F18BFFB1A43F0010318473B
:10012000604E0000804E0000103A24BF78C878C1AD
:10013000FAD8520724BF30C830C144BF04680C60ED
:10014000704700000023002400250026103A28BF35
:1001500078C1FBD8520728BF30C148BF0B60704739
:10016000642900F09180002070471FB51FBD10B5B5
:1001700010BD00F066F91146FFF7F7FF02F0D8FE58
:1001800000F084F903B4FFF7F2FF03BC00F08CF930
:100190000948804709480047FEE7FEE7FEE7FEE71B
:1001A000FEE7FEE7FEE7FEE7FEE7FEE70448054957
:1001B000054A064B70470000C3290008ED000008FF
:1001C00098060020980C002098080020980800202D
:1001D000B2F120030AD5C2F1200320FA02F001FA9D
:1001E00003F321FA02F140EA0300704721FA03F019
:1001F0004FF00001704700000FB41CB5074B06AA72
:100200007B4469460090059800F003F90020694698
:1002100000F012F91CBC5DF814FB00003502000070
:100220002DE9F0410E460446002020622046E16898
:10023000884730B3252805D0D4E901219047206AAA
:10024000401CF2E7E168204600278847050018D0E7
:10025000A5F14100192802D820354FF40067324635
:10026000294620462760FFF77BFF40B1012804D0D4
:10027000F61D26F007060836D8E7361DD6E72846CD
:10028000DAE7206ABDE8F0812DE9F0410646002456
:1002900010687529314616A510D0AFF300800028EC
:1002A00002DA404213A507E031688A0701D512A59A
:1002B00002E0490704D511A5012401E0AFF3008055
:1002C00000210A2206F1240709E0B0FBF2FCB0FB92
:1002D000F2F302FB1C00303078541846491C002809
:1002E000F3D123462A463046BDE8F04100F032B84B
:1002F000000000002D0000002B0000002000000086
:100300004FF0000200B5134694469646203922BFAE
:10031000A0E80C50A0E80C50B1F12001BFF4F7AFF9
:10032000090728BFA0E80C5048BF0CC05DF804EBDB
:10033000890028BF40F8042B08BF704748BF20F849
:10034000022B11F0804F18BF00F8012B7047704747
:10035000704770472DE9F0470D469946924604468E
:1003600000F124080168880604D5E06921F0100135
:10037000216000E00120A84201DD471B00E00027CA
:10038000A1697A1902EB0900081AA0612078C00659
:1003900002D42046AFF30080002608E0D4E9012112
:1003A0001AF806009047206A401C761C20624E45D1
:1003B000F4DB2078C0060AD52046AFF3008006E0C3
:1003C000D4E9012130209047206A401C2062381E69
:1003D000A7F10107F4DC07E0D4E9012118F80500D2
:1003E0009047206A401C2062281EA5F10105F3DC1D
:1003F0002046AFF300802078000602D50220BDE839
:10040000F0870120FBE7000001694A1C02610878BF
:10041000704700B58FB0CDE9013100210591054944
:100420007944CDE9031011466846FFF7F9FE0FB095
:1004300000BD0000E5FFFFFF0A6802F8010B0A603B
:100440007047754600F02CF8AE46050069465346E5
:1004500020F00700854618B020B5FFF7A7FEBDE8DD
:1004600020404FF000064FF000074FF000084FF01B
:10047000000B21F00701AC46ACE8C009ACE8C009AC
:10048000ACE8C009ACE8C0098D46704710B5044619
:10049000AFF300802046BDE81040FFF773BE0000B8
:1004A000004870473806002001491820ABBEFEE71F
:1004B000260002007047000070B50446006881689D
:1004C000C943C90717D1816821F00101816000F09B
:1004D00083FF05460AE000BF00F07EFF401B0228B4
:1004E00004D920688068C043C00706D020688068AF
:1004F000C043C007F0D0002070BDA06A40F01000DB
:10050000A062E06A40F00100E062012070BD0000DE
:10051000F8B500260446009600688168C943C907FB
:100520002DD0816841F001018160164816490068AC
:10053000B0FBF1F000E0401E00900028FBD100F07D
:100540004BFF054616E000BF00F046FF401B0228A7
:1005500010D920688068C043C0070BD0A06A40F063
:100560001000A062E06A40F00100E06284F82460BC
:100570000120F8BD20688068C043C007E4D1002096
:10058000F8BD00002000002040420F00FEE7000000
:100590001FB50020019003902020009001200290C0
:1005A0006946024800F01EFE1FBD0000000C01401D
:1005B0001FB5002002902020009001200190032010
:1005C00003906946014800F00DFE1FBD000C01407C
:1005D0002DE9FC5F4FF000090646CDF80090CDF8FC
:1005E0000490FFF7E5FF484D00222021284600F047
:1005F000EEFE142000F012FD01222021284600F01A
:10060000E6FE424842494FF0E0220068B0FBF1F0BC
:10061000C0EB0010916940009369CB1A8342FBD371
:10062000FFF7B6FF42F21074274601E07F1E07D0A5
:100630002021284600F0C6FE0128F7D0274604E016
:100640000120BDE8FC9F7F1E07D02021284600F036
:10065000B9FE0028F7D0A04603E00220F1E7641EAF
:100660000ED020212F46284600F0ACFE0128F6D0FF
:10067000C2460025B84600244FF47A7B574603E073
:100680000320DEE77F1E07D02021404600F09AFEBF
:100690000028F7D0002704E00420D2E77F1C5F4544
:1006A00005D82021404600F08DFE0128F6D01E2FEF
:1006B00006D9C4F1070101208840C0B240EA090907
:1006C000641CE4B2082CD9D30DF805906D1CEDB272
:1006D0004FF00009052DCED39DF800409DF8013064
:1006E0009DF802209DF80310E018551805449DF868
:1006F0000400854201D00620A3E734707370B27005
:10070000F170307100209CE7000C014020000020B7
:1007100040420F00014800F0A9BB00000C0100207E
:10072000014800F0A3BB000050010020704710B545
:100730004FF4805000F04AFD4FF4005000F046FDA9
:10074000BDE810404FF4804000F040BD72B6FEE7B7
:1007500006490020C8610648016941F004010161B1
:10076000016941F0400101617047000098010020DB
:1007700000200240064A0021D16106490A6942F080
:1007800002020A614861086940F040000861704750
:100790009801002000200240044B0022DA61044A44
:1007A000136943F001031361018070479801002031
:1007B000002002401049D1F8001C016001780A397C
:1007C0001F290FD241780A290CD328290AD8817809
:1007D00041B10A2906D88188B1F5FA6F02D3B1F583
:1007E0007A6F08D91E210170142141700221817095
:1007F00040F6B8318180704700F0000814480022AC
:10080000C168CB06134904D5CA6942F00202CA6125
:100810001022C3685B0705D5CB6943F00103CB61A8
:1008200042F00402C369DB0707D0CB6943F004033D
:10083000CB61C16921F00101C161A2F5807101396B
:1008400001D0C2607047C16921F00101C1617047E8
:10085000002002409801002070B5054600F0BCFD64
:100860000646114C09E0681C07D025B100F0B4FD24
:10087000801BA84201D9032070BDE068C007F2D1F7
:10088000E068800601D52020E060E068C00605D45D
:10089000E069C00702D1E068400703D5FFF7AEFF6B
:1008A000012070BD002070BD0020024030B585B031
:1008B000044600F063FC0020094D012102950090E0
:1008C000CDE9031004A9684600F0BAFB00232946CD
:1008D0000220226800F012FC00F006FC05B030BDDA
:1008E00000FC0008F8B50024009490F82420254668
:1008F000012A12D0012280F824204A681F23072AE7
:100900000DD20668776B521E02EB820293409F4322
:100910000B6893401F43776319E00220F8BD066817
:100920000D2A0AD2376BD21F02EB820293409F43FB
:100930000B6893401F43376309E0F76A0D3A02EBF7
:10094000820293409F430B6893401F43F7620A68FB
:10095000072306680A2A0AD3F7680A3A02EB42021A
:1009600093409F438B6893401F43F76008E03769CB
:1009700002EB420293409F438B6893401F433761D1
:100980000A68102A01D0112A20D1124B02689A421B
:1009900017D193681B0219D4936843F40003936042
:1009A0000968102912D10C490C4A0968B1FBF2F10F
:1009B00001EB8101490000E0491E00910029FBD1B3
:1009C00004E0816A41F020018162012480F8245012
:1009D0002046F8BD002401402000002040420F00C6
:1009E0000068C06C704700002DE9F0414FF000072F
:1009F00004003D467ED0A06A002628B9E66284F84D
:100A00002460204600F07EF82046FFF755FDA16ADD
:100A1000C90600D420B1A06A40F01000A06269E0CD
:100A2000A16A21F4885141F00201A1626268E16982
:100A3000237B0A4347EA43010A43A1684FF48077C6
:100A4000B94209D0012907D05FF0000194F814C021
:100A5000BCF1010F02D00AE03946F7E7F3B1A36A0F
:100A600043F02003A362E36A43F00103E3622368D7
:100A7000D3F804C02CF4694C4CEA010CC3F804C050
:100A800021688B68DFF870C003EA0C0313438B60A6
:100A9000A168B9420BD0012909D00CE0DFF85CC095
:100AA000A3690CEB43330B4343F40061DFE7218A76
:100AB0000D05A5F580152168CB6A23F470032B433F
:100AC000CB62216889680E4B1940914208D1E662D9
:100AD000A16A21F0020141F00101A162BDE8F081AB
:100AE000A06A20F0020040F01000A062E06A40F02E
:100AF0000100E0620120F1E7FDF7E1FF00E0FFFF08
:100B0000FE0E1FFF00B585B00021009101910291FA
:100B1000039100680E49884218D10E48816941F45A
:100B200000718161816901F400710491816941F072
:100B3000080181618069694600F008000490022084
:100B4000009003200190044800F04CFB05B000BD6C
:100B50000024014000100240000C01402DE9F84340
:100B600000270D460446009700F036FC80462068BA
:100B70008168C90508D5A06A40F02000A06284F809
:100B800024700120BDE8F8834168C90503D4C06A18
:100B900010F4700F2AD0022000F0BCFC3B49096819
:100BA000B1FBF0F62068036939490B424FEA610155
:100BB0004FEAA1121FD1C3684FEA611C13EA0C0F60
:100BC00019D103690B4225D1C068104222D11420EB
:100BD00023E0681C0AD02DB100F0FEFBA0EB08005A
:100BE000A84203D920680068800725D520680068DE
:100BF0008007EED52DE003690B4202D1C168114296
:100C000006D0026923490A4206D1C068084203D1CE
:100C1000542002E0292000E0FC204643009816E022
:100C2000681C11D02DB100F0D7FBA0EB0800A84242
:100C30000AD90098B04207D2A06A40F00400A0622E
:100C400084F8247003209DE70098401C0090B04277
:100C5000E6D321686FF012000860A06A40F40070CB
:100C6000A06220688068C0F3424007280CD1207B36
:100C700050B9A06A20F48070A062A06AC00403D4B6
:100C8000A06A40F00100A06200207BE72000002065
:100C9000244992244992240070B5044690F8240017
:100CA00001280DD0012084F824002046FFF730FCF5
:100CB00002004FF0000005D084F82400104670BDFB
:100CC000022070BDA16A40F20123994341F4807172
:100CD000A1621F4D23681F49AB4218D10E6816F45C
:100CE000702F14D0A66A46F48016A6620E687605A8
:100CF00005D5A66A26F4005646F48056A662A66A72
:100D0000F6040AD5E66A26F00606E66206E0A66A5A
:100D100026F48016A6625E68E9E7E06284F82400A3
:100D20006FF00200186020688368C3F34243072B0A
:100D300005D1A84208D1096811F4702F04D0816848
:100D400041F480118160B9E7816841F4A001F9E7BD
:100D5000002801400424014010B5044690F8240006
:100D6000012807D0012084F824002046FFF7A4FBC7
:100D700010B107E0022010BDA16A21F4885141F0B2
:100D80000101A162002184F8241010BD10B590F873
:100D900021100022022905D00421816380F820203F
:100DA000012010BD01680B6823F00E030B60016881
:100DB0000B6823F001030B6090F84030C46B0121F5
:100DC00001FA03F3636080F8211080F820201046B8
:100DD00010BD000010B590F821100024022903D0A6
:100DE0000421816301243DE001680A6822F00E02BB
:100DF0000A6001680A6822F001020A601A4A016862
:100E0000914201D1012121E0174A1432914201D1CE
:100E100010211BE0144A2832914201D1891515E0B6
:100E2000114A3C32914201D189140FE00E4A5032EE
:100E3000914202D14FF4803108E00B4A6432914272
:100E400002D14FF4801101E04FF08071064A083A58
:100E50005160012180F82110002180F82010416BA1
:100E600001B18847204610BD080002402DE9F05F1F
:100E7000C16B0C6801680B68D0F840C0042202FA0C
:100E80000CF2494DDFF824A1494E4A4FDFF828B152
:100E9000DFF828E122422CD05A072AD50A689206A8
:100EA00003D40A6822F004020A600168A94201D151
:100EB000042219E0514501D1402215E0B14202D18E
:100EC0004FF4806210E0B94202D14FF480420BE04F
:100ED000594502D14FF4802206E0714502D14FF40A
:100EE000800201E04FF080622F4908394A60C16AF0
:100EF0003BE04FF0020808FA0CF818EA040F4FF034
:100F000000094FF0010235D05FEA837832D50B68D3
:100F10009B0605D40B6823F00A030B6080F82120A0
:100F20000168A94201D1022219E0514501D12022D4
:100F300015E0B14202D14FF4007210E0B94202D183
:100F40004FF400520BE0594502D14FF4003206E055
:100F5000714502D14FF4001201E04FF000721249C6
:100F600008394A6080F82090816A00291AD0BDE8CB
:100F7000F05F0847082505FA0CF5254212D01B073B
:100F800010D50B6823F00E030B6090F84010C36B74
:100F900002FA01F15960826380F8212080F82090E4
:100FA000016BE2E7BDE8F09F080002401C00024030
:100FB0003000024044000240580002406C000240F1
:100FC00030B528B308C8134914221944B1FBF2F113
:100FD0008900C16310498163022141771A6843F691
:100FE000F0718A43D0E900142143D0E902452C4333
:100FF0002143046921434469214384692143114306
:10100000196000214163012242770177084630BD13
:10101000012030BDF8FFFDBF0000024070B504465E
:1010200000F0DAF90546601C02D004480078044458
:1010300000F0D2F9401BA042FAD370BD140000208A
:101040002DE9F047054626480F460126017E012975
:101050000FD00121814601762868DFF888804CF2A4
:101060005034022808D0A2462046FFF7F5FBA8B16D
:1010700031E00220BDE8F0872046FFF7EDFB08BB1A
:101080000120FFF765FB2046FFF7E6FBD8F81010BC
:10109000064621F00401C8F810101CE04FF0FF30A4
:1010A0003860AC6811E02046FFF764FB5046FFF75C
:1010B000D3FBD8F81010060021F00201C8F8101078
:1010C00001D03C6007E004F58064D5E9020100EB43
:1010D0008120A042E7D8002189F818103046C9E7DE
:1010E00098010020002002400348016941F080017E
:1010F0000161002070470000002002402DE9F05FF0
:1011000007461C4888460024017E15461E460129D4
:1011100009D00121814601764CF2503A5046FFF742
:101120009BFB18B122E00220BDE8F09F012F02D006
:10113000022F00D00427D346DFF83CA02201284626
:101140003146FFF745F881B208EB4400FFF724FB76
:101150005846FFF781FBDAF8102022F00102CAF8A6
:10116000102018B9641CE4B2BC42E7D3002289F80D
:101170001820D9E7980100200020024006490020ED
:101180000A69120607D5054A4A60054A4A60096994
:10119000090600D501207047002002402301674561
:1011A000AB89EFCD0121084AB0F5805F07D0B0F5DB
:1011B000005F06D0B0F5804F00D11171704791707B
:1011C0007047D1707047000000000020044910B53E
:1011D0000A68024202D00860FFF7E4FF10BD000079
:1011E000140401402DE9F84FDFF8B8910024A9F16B
:1011F000040B23460F2709F1040AABF1040EC9E0E2
:101200000125A5402A40AA427DD1674ED1F804C0ED
:10121000ACEB0608B44532D014DCBCF1030F3AD075
:1012200009DCBCF1000F2AD0BCF1010F1CD0BCF1CD
:10123000020F31D11DE0BCF1110F17D0BCF1120F1C
:101240002AD119E0B8F5881F19D006DCB8F5803F1F
:1012500015D0B8F5801F1FD111E0B8F5001F0ED0D2
:10126000B8F5041F18D10AE0CB6815E0CB681B1D48
:1012700012E0CB6808330FE0CB680C330CE08B68CE
:101280002BB1012B4FF0080303D0456104E0042388
:1012900002E0056100E00023FF2A01D8064601E0D4
:1012A00000F104064FEA840501D9A5F12005D6F81E
:1012B000008007FA05FC28EA0C0803FA05F548EA5D
:1012C0000508C6F800804D68ED0062D5374DAE695F
:1012D00046F00106AE61AD6924F0030605F0010594
:1012E0000095334D06EB050CDCF80850A607360FC9
:1012F00007FA06F825EA0805DFF8B880404503D16B
:101300004FF0000817E044E0DFF8AC80404502D120
:101310004FF001080FE0DFF8A480404502D14FF004
:10132000020808E0DFF89880404502D14FF003083A
:1013300001E04FF0040808FA06F848EA0508CCF87E
:1013400008804D68D9F80060ED024D4601D516437E
:1013500000E096432E604D68DAF80060AD02554615
:1013600001D5164300E096432E604D68DBF800601F
:10137000AD035D4601D5164300E096432E604D68EF
:10138000DEF80060ED03754601D5164300E0964394
:101390002E60641C0D682A46E5407FF431AFBDE83D
:1013A000F88F0000080401400000111000100240F6
:1013B0000000014000080140000C01400010014005
:1013C000001401408068084000D0012070470AB135
:1013D000016170470904FBE701488068704700001D
:1013E000140000200248816802781144816070472F
:1013F00014000020074810B5016841F01001016099
:10140000032000F075F80F2000F006F800F024F833
:10141000002010BD0020024070B50D4D04464FF471
:101420007A712878B1FBF0F00A490968B1FBF0F055
:1014300000F0A4FB48B9102C07D200222146501E10
:1014400000F036F800206C6070BD012070BD000017
:1014500014000020200000200C4808B5816941F0EC
:1014600001018161816901F001010091C16941F0CF
:101470008051C161C06900F080500090044841680B
:1014800021F0E06141F00071416008BD00100240B0
:1014900000000140002809DB00F01F0201219140FB
:1014A0004009800000F1E020C0F800117047000002
:1014B000F0B40E4B1B680C46C3F30223C3F10705BF
:1014C000042D00D90425191D072901D2002300E0AD
:1014D000DB1E012606FA05F1491E214099409E4077
:1014E000761E16403143F0BC01F011BD0CED00E05A
:1014F000064900F0070208684FF6FF03184040EA6B
:101500000220034A10430860704700000CED00E021
:101510000000FA0510B501460020234C012922D015
:10152000022939D010291DD161682268D20119D54C
:101530001E48C1F38342C903805C0AD561681B4A17
:10154000C1F34041921E515C194AB2FBF1F148438C
:1015500001E0184948436168490203D4400003216F
:10156000B0FBF1F010BD226AC2F30121012903D1C1
:10157000920701D5C80310BD022905D1626A9207FE
:1015800002D549F6404010BD0329FCD121688903EA
:10159000F9D54FF2244010BD00F02AF96168C1F37B
:1015A0008131491C4900DBE7001002406E3500081C
:1015B00000127A0000093D002DE9F8430546007845
:1015C000354CC00754D0E0690026C00008D4E0695B
:1015D00040F08050E061E069012600F0805000900A
:1015E0002E480168C90512D40168804641F4807113
:1015F0000160FFF7F1FE074605E000BFFFF7ECFED4
:10160000C01B642823D8D8F80000C005F6D5206A8E
:1016100010F4407021D0A98801F4407181421CD09F
:10162000206A1F49012220F440700A6000220A60EB
:101630002062C00711D0FFF7CFFE074641F288387D
:1016400008E000BFFFF7C8FEC11B414502D90320D7
:10165000BDE8F883206A8007F4D5206A696820F421
:101660004070084320621EB1E06920F08050E061C4
:101670002878800705D56068A96820F440400843B1
:1016800060602878C00605D56068E96820F48000AD
:10169000084360600020DBE700100240007000405B
:1016A000400442422DE9F0470F46050061D0434E09
:1016B000306800F00700B84209D2306820F0070017
:1016C00038433060306800F00700B84251D12868D4
:1016D0003B4C810712D5400703D5606840F4E060B9
:1016E00060602878000703D5606840F4605060604F
:1016F0006068A96820F0F000084360602878C0079F
:1017000028D06868012810D02168022810D08907E5
:1017100000292EDA616821F0030101436160FFF7BF
:101720005BFE804641F288390DE021688903EFE7CE
:101730008901EDE7FFF750FEA0EB0801494502D90A
:101740000320BDE8F0876068696800F00C00B0EB2A
:10175000810FEFD1306800F00700B8420BD9306834
:1017600020F0070038433060306800F00700B842CE
:1017700001D00120E5E72878400705D56068E968D1
:1017800020F4E060084360602878000706D56068B0
:10179000296920F4605040EAC100606000F038F828
:1017A0006168084AC1F30311515CC84006490860EA
:1017B00006480068FFF730FE0020C2E70020024024
:1017C000001002407E350008200000201800002094
:1017D0000448054900684968044AC1F30221515C84
:1017E000C840704720000020001002408E350008DD
:1017F0000448054900684968044AC1F3C221515CA4
:10180000C840704720000020001002408E350008BC
:101810000E4A51680E4801F00C03042B11D0082B1E
:101820000FD10C48C1F38343C903C05C0AD551688A
:10183000084AC1F34041921E515C054A5043B0FB37
:10184000F1F070470449484370470000001002401F
:1018500000127A005C35000800093D002DE9F84FC0
:10186000040070D02078C04DC00749D06868C0F32C
:101870008100012807D06868C0F38100022809D1DF
:101880006868C00306D52868800339D560680028D9
:10189000E7D035E06068B0F5803F0BD010B1B0F50F
:1018A000A02F11D0286820F480302860286820F408
:1018B000802002E0286840F480302860606890B1A1
:1018C000FFF78AFD06460AE0286840F48020286079
:1018D000F0E700BFFFF780FD801B642873D82868FD
:1018E0008003F7D50CE0FFF777FD064605E000BF63
:1018F000FFF772FD801B6428F0D828688003F7D4B6
:1019000020789A4E80074FF001094FF0000839D532
:10191000686810F00C0F07D06868C0F381000228D7
:1019200009D16868C00306D42868800714D52069E7
:10193000012808D110E02069B0B1C6F80090FFF787
:101940004BFD074605E00AE1FFF746FDC01B0228F4
:10195000C4D828688007F7D52868616920F0F800A6
:1019600040EAC10028600DE0C6F80080FFF734FDB2
:10197000074604E0FFF730FDC01B022823D8286883
:101980008007F7D4207800072CD57948A169D9B110
:10199000C0F80090FFF720FD074604E0FFF71CFDAC
:1019A000C01B02280FD8686A8007F7D571484FF42A
:1019B000FA510068B0FBF1F0009000BF0098411EA2
:1019C0000091FAD20EE080E0C0F80080FFF704FD3D
:1019D000074604E0FFF700FDC01B022875D8686ABF
:1019E0008007F7D42078400760D5E8690027C00059
:1019F00008D4E86940F08050E861E869012700F008
:101A0000805000905C480168C90513D40168834682
:101A100041F480710160FFF7DFFC824606E000BF01
:101A2000FFF7DAFCA0EB0A0064284ED8DBF80000D0
:101A3000C005F5D5E06801280AD008B1052813D003
:101A4000286A20F001002862286A20F0040002E0E1
:101A5000286A40F001002862E06841F2883B98B1B2
:101A6000FFF7BAFC82460BE0286A40F004002862C7
:101A7000EEE700BFFFF7B0FCA0EB0A0159455AD8CA
:101A8000286A8007F6D50CE0FFF7A6FC824605E041
:101A9000FFF7A2FCA0EB0A0159454CD8286A800741
:101AA000F6D41FB1E86920F08050E861E06988B39E
:101AB0006968C1F38101022944D00228C6F8608018
:101AC00004D0FFF789FC044638E034E0FFF784FCDB
:101AD000074604E0FFF780FCC01B02282BD82868CB
:101AE0008001F7D4206AB0F5803F05D16868A1680D
:101AF00020F4003008436860D4E9080108436968AD
:101B000021F4741108436860C6F86090FFF764FC24
:101B1000044606E025E000BFFFF75EFC001B02283C
:101B200009D828688001F7D51BE000BFFFF754FCF7
:101B3000001B022802D90320BDE8F88F2868800125
:101B4000F4D40EE00128F7D06868226A00F48031EE
:101B5000914204D1616A00F47010884201D00120E2
:101B6000EAE70020E8E700000010024000004242DF
:101B700080044242200000200070004010B5401E4A
:101B8000B0F1807F01D3012010BD4FF0E0246061EF
:101B90000F21601701F0BBF90020A0610720206130
:101BA000002010BD70477047F8B50168044608680A
:101BB000CA684B6910F00F0F4FF0000559D003F0C1
:101BC000010602F49077374365D0C10705D0D105EF
:101BD00003D5616C41F001016164410705D5D90766
:101BE00003D0616C41F002016164810705D5D9071A
:101BF00003D0616C41F004016164010707D502F074
:101C00002001314303D0616C41F008016164616CD3
:101C100000293AD0800604D5900602D5204600F06F
:101C200035FF20684069616CC0F38010090700D45B
:101C300060B3204600F0CEFE20684069400621D502
:101C40002068143050E8001F21F0400140E80012E5
:101C5000002AF5D1E06BA8B16D494163E06BFFF755
:101C6000B9F8002811D0E06B416B01B0BDE8F0403D
:101C7000084783060FD593060DD52046BDE8F840EA
:101C800000F004BF2046FFF78EFFF8BD2046FFF7A7
:101C90008AFF6564F8BD266B2023012E7CD1C60621
:101CA0007AD5D60678D508684868009048694FF01C
:101CB0000206400640D5E16B086840680004000C4D
:101CC000E8D0A28D8242E5D9E085886920282DD010
:101CD00020680C3050E8001F21F4807140E80012A9
:101CE000002AF5D12068143050E8001F21F00101CE
:101CF00040E80012002AF5D12068143050E8001F97
:101D000021F0400140E80012002AF5D184F8423069
:101D1000256320680C3050E8001F21F0100140E8D6
:101D20000012002AF5D1E06BFFF730F86663A08D52
:101D3000E18D401A81B22AE0A08DE18D401A81B276
:101D4000E08D0028A6D00029A4D022680C3252E8E9
:101D5000000F20F4907042E80007002FF5D12068B2
:101D6000143050E8002F22F0010240E80027002F35
:101D7000F5D184F84230256320680C3050E8002FFC
:101D800022F0100240E80023002BF5D166632046C4
:101D9000FFF708FFF8BDFFE705062BD5150629D587
:101DA00094F841002128F5D1A068B0F5805F01D1F9
:101DB0002069B0B1206A411C216221680078486026
:101DC000E08C401E0004000CE084E3D12068C16870
:101DD00021F08001C1602068C16841F04001C1600C
:101DE000D8E7206A0088C0F308004860206A801C99
:101DF0002062E5E74006CDD55006CBD5CA6820461F
:101E000022F04002CA6084F8413000F0FDF8C1E7DA
:101E1000C529000870B5040004D094F841000025DD
:101E200010B106E0012070BD84F84050204600F05B
:101E300023F8242084F841002068C16821F400516F
:101E4000C160204600F084FE2068016921F49041C1
:101E500001612068416921F02A0141612068C1685F
:101E600041F40051C1606564202084F8410084F889
:101E700042006563002070BDF0B585B00024009479
:101E80000194029403940646414F0368414802219D
:101E90000322414DBB4226D1836943F480438361D1
:101EA000836903F480430493836943F004038361EB
:101EB0008069039200F0040004900802CDE900015B
:101EC00069462846FFF78EF92815CDE900046946D2
:101ED00028460294FFF786F9002202212520FFF709
:101EE000E7FA252050E02D4FBB424FD1C36943F4A0
:101EF0000033C361C36903F400330493836943F07F
:101F0000040383618069039200F0040004900420BC
:101F1000CDE9000169462846FFF764F90820CDE9BC
:101F20000004694628460294FFF75CF91D4D1C48E1
:101F30008027C5E90004C5E902472C616C61AC61EA
:101F40002846EC61FFF73CF808B1FEF7FFFBF563AC
:101F50006E62144D12484435143001C5102091C5ED
:101F6000104845F8104944306C61AC61EC61FFF7F2
:101F700027F808B1FEF7EAFBB563002211462620D8
:101F80006E62FFF795FA2620FFF784FA05B0F0BDE0
:101F900000380140001002400008014000440040A9
:101FA0006C0002400C01002090F84230202B01D040
:101FB0000220704721B11AB10023036300F032BE42
:101FC0000120704700680D49884216D10C4890F8EE
:101FD0002010491CC9B280F82010092908D301211A
:101FE00080F82110002180F820100122014601E034
:101FF000014401220348FFF7D7BF70470038014072
:10200000540000207C0000207047FEE770B50122DC
:102010000E4D940321462846FFF7D9F901225603B5
:1020200031462846FFF7D3F900F048F80022214650
:102030002846FFF7CCF900F041F800223146284647
:10204000FFF7C5F9BDE8704000F038B80010014056
:1020500070B50B4D4FF48044002221462846FFF70F
:10206000B6F9012251032846FFF7B1F900F026F82E
:1020700021462846BDE870400122FFF7A8B90000BC
:102080000010014070B50C4C012291032046FFF76F
:102090009EF900F013F80122550329462046FFF768
:1020A00096F900F00BF8002229462046FFF78FF939
:1020B000BDE8704000F002B8001001400320401E4F
:1020C000C0B2FCD27047000010B500240848FEF7EB
:1020D000E3FD58B964210648FEF740FD18B90448ED
:1020E000FEF77EFC84B20248FEF736FE204610BDA5
:1020F000240000203EB5002411480094019402946D
:102100000E498460016004730475012505614FF474
:1021100060214460C161FEF767FC08B1FEF716FB61
:102120000920CDE90005694602940548FEF7DAFB6F
:10213000002801D0FEF70AFB3EBD0000002401404C
:10214000240000200D4808B5416941F001014161BA
:102150004069002200F00100009011461020FFF7B6
:10216000A7F91020FFF796F9002211461120FFF77A
:102170009FF9BDE808401120FFF78CB9001002401C
:10218000F0B585B0002000900190029003902B489C
:10219000816941F010018161816901F010010491B0
:1021A000816941F020018161816901F02001049180
:1021B000816941F004018161816901F004010491A8
:1021C000816941F00801816180691D4E00F00800BD
:1021D0004FF4C0440490012221463046FFF7F7F83F
:1021E000184F012220213846FFF7F1F8009401240E
:1021F0000325694630460194CDE90245FEF7F2FF1A
:102200004FF4E04000901048CDE90104694638469B
:10221000FEF7E8FF2020CDE9000469463846CDE905
:102220000245FEF7DFFF002211462820FFF740F9A4
:102230002820FFF72FF905B0F0BD00000010024084
:1022400000100140000C0140000021100C4810B5A6
:102250000A4901604FF416514160002181600C224F
:10226000C160C0E904128161C161FFF7D3FD00289C
:1022700003D0BDE81040FEF769BA10BD0038014038
:102280007C0000200C4810B50A4901604FF4E13190
:102290004160002181600C22C160C0E904128161AB
:1022A000C161FFF7B7FD002803D0BDE81040FEF77D
:1022B0004DBA10BD00440040C4000020FEE7FEE718
:1022C00030B40021084B0A465FF0000003EBC00465
:1022D000401CC0B262548028F8D3491CC9B20829F6
:1022E000F2D330BC00F08EB8B801002030B5CC0875
:1022F00001F0070301259D40EBB2064D05EBC0053B
:10230000C808285C0AB1184302E063EA0000C04331
:10231000285530BDB801002010B50021AE2000F0D6
:10232000CDFA0021084600F0C9FA0021102000F083
:10233000C5FA0021402000F0C1FA0021812000F000
:10234000BDFA0021CF2000F0B9FA0021A12000F051
:10235000B5FA0021C82000F0B1FA0021A62000F053
:10236000ADFA0021A82000F0A9FA00213F2000F0DA
:10237000A5FA0021D32000F0A1FA0021084600F0C0
:102380009DFA0021D52000F099FA0021802000F06C
:1023900095FA0021D92000F091FA0021F12000F0F7
:1023A0008DFA0021DA2000F089FA0021122000F0D5
:1023B00085FA0021DB2000F081FA0021302000F0B6
:1023C0007DFA0021202000F079FA0021022000F09F
:1023D00075FA00218D2000F071FA0021142000F020
:1023E0006DFAFFF76DFF0021BDE81040AF2000F04F
:1023F00065BA0246012000E05043491EC9B2FBD233
:102400007047000070B5184E002400BF04F1B00002
:10241000C0B2002100F052FA0021084600F04EFA46
:102420000021102000F04AFAFFF7F0FD782000F0BC
:1024300063FAFFF727FE402000F05EFAFFF722FE66
:102440005FF0000506EBC500005D00F055FAFFF7F0
:1024500019FE6D1CEDB2802DF4D3FFF7F9FD641C5D
:10246000E4B2082CD2D370BDB801002070B5054687
:10247000B030C0B2002100F021FA0021084600F07F
:102480001DFA0021102000F019FAFFF7BFFD782097
:1024900000F032FAFFF7F6FD402000F02DFAFFF7CA
:1024A000F1FD094E002400BF06EBC400405D00F0C2
:1024B00023FAFFF7E7FD641CE4B2802CF4D3BDE8F7
:1024C0007040FFF7C5BD0000B80100202DE9FC4FAA
:1024D0001C460E4682468B460190082B0DD06007A5
:1024E00000D0012000EBD40061084843C0B281460F
:1024F000203AD0B2009000204BE00620F7E7082CED
:1025000013D00C2C18D0102C1BD0182C44D10098B0
:10251000234900EBC00000BF01EB8001002711F848
:102520000850E80712D00B9A13E000981D4900EB01
:10253000400001EB4001F1E700981B4900EB40002F
:10254000EAE71A49009801EB0011E7E70B9828B376
:10255000002231465046FFF7C9FE761C7F1C6D08ED
:10256000FFB2F6B2082FDCD30AF1010000F0FF0A37
:10257000082C0AD00199AAEB0100B0EB540F04D14A
:102580000BF108008A4600F0FF0B08F101005E46DF
:10259000C0B280464845B2D3BDE8FC8F0122D8E7DF
:1025A0002242000896350008BE370008323C000879
:1025B0002DE9FC411446104600F050FE86B230462C
:1025C00000F06CFE214600F049FF3D4900F07AFE24
:1025D00000F044FE87B200203A49024601EBC003F6
:1025E000401CC0B25A708028F8D30124082336A2B8
:1025F00019460020009400F0DAF80825642E1CD358
:10260000CDE90054032332460821182000F098F841
:1026100008232E22194630200094FFF757FFCDE9FA
:10262000005401233A460821362000F089F8082397
:1026300027A219463C2000943AE00A2E1CD3CDE98B
:102640000054022332460821182000F079F80823AC
:102650002E2219462A200094FFF738FFCDE90054B6
:1026600001233A460821302000F06AF8082318A216
:102670001946362000941BE0CDE900540123324670
:102680000821182000F05CF808232E2219461E208D
:102690000094FFF71BFFCDE9005401233A460821BF
:1026A000242000F04DF8082309A219462A2000949E
:1026B00000F07DF8BDE8FC410120FFF7D7BE000027
:1026C00000002041B8010020434F323A00000000D2
:1026D0006D672F6D330000007CB50546002113485F
:1026E0000A4600BF00EBC103491CC9B29A70802999
:1026F000F8D3012408230EA210210020009400F03A
:1027000056F80820CDE9000404232A461021182099
:1027100000F016F8082308A210213420009400F0DD
:1027200046F8BDE87C400220FFF7A0BEB8010020BB
:102730004D51353A000000002F343039350000008B
:102740002DE9F84F0025DDE90A691F4692468B46C0
:102750008046082E00D1022500241CE0381B401EB4
:10276000C1B20A20FFF745FEBAFBF0F00A21B0FB28
:10277000F1F201FB1200CDF8009080B13030C2B20E
:1027800005EB560101FB0480C0B233465946FFF702
:102790009DFE641CE4B2BC42E0D3BDE8F88F05EBBB
:1027A000560101FB0480C0B233463022EEE72DE92A
:1027B000F8411E46154688460446079F0BE03346FF
:1027C000414620460097FFF781FE082E0AD004EB11
:1027D0005600C4B26D1C2A78A2F120005E28EED902
:1027E000BDE8F881A41DE4B2F4E700007CB506461C
:1027F0000124002108232FA208460094FFF7D7FFE9
:10280000B2780825642A01D3032304E00A2A01D3FD
:10281000022300E00123CDE9005400210C20FFF742
:102820008FFF08232E22002118200094FFF74EFE70
:10283000CDE90054F278012300211E20FFF780FF2C
:1028400008234322002124200094FFF73FFE0823A1
:1028500019A200212A200094FFF7A9FF3278642AE8
:1028600001D3032304E00A2A01D3022300E0012359
:10287000CDE9005400213620FFF762FF08232E2205
:10288000002142200094FFF721FECDE90054727828
:10289000012300214820FFF753FF082325220021B0
:1028A0004E200094FFF712FEBDE87C400020FFF7A9
:1028B000DDBD0000543A0000483A000070B50C46F7
:1028C0000546FFF7A3FB782000F016F8FFF7DAFBC8
:1028D0000CB1402000E0002000F00EF8FFF7D2FB22
:1028E000284600F009F8FFF7CDFBBDE87040FFF780
:1028F000AFBB7047704700002DE9F041124F002434
:1029000005464FF480487E14280601D5012200E0D8
:10291000002241463846FEF75AFDFFF7CFFB012261
:1029200031463846FEF753FDFFF7C8FB002231461B
:102930003846FEF74CFD6806641C050EE4B2082C10
:10294000E2D3BDE8F081000000100140FEF74ABD6F
:1029500030B593B028216846FDF7D2FC14210AA8AF
:10296000FDF7CEFC0024012108040F94109412946A
:102970000491CDE90010CDE90804119402940225D8
:1029800007956846FEF76AFF08B172B6FEE70F20AA
:10299000CDE90A054FF48060CDE90C4000210AA87A
:1029A0000E94FEF77FFE08B172B6FEE70FA80F95F2
:1029B0001194FEF701FE002801D072B6FEE713B0B5
:1029C00030BD704710B5406A0021C185C184FFF752
:1029D000EAF810BD01680C3151E8002F22F4907222
:1029E00041E80023002BF5D10168143151E8002F94
:1029F00022F0010241E80023002BF5D1016B0129EF
:102A000009D101680C3151E8002F22F0100241E891
:102A10000023002BF5D1202180F842100021016312
:102A200070470000044810B5C08C00F037FCBDE8CA
:102A30001040024900F046BC540000206F12833A57
:102A40001148002201782C2902D14178E42901D0D3
:102A5000012070470021435C491C1A44C9B292B25C
:102A60000829F8D3D1B2027A914201D002207047EE
:102A7000418849BA4184818849BA8184C18849BA68
:102A8000C1840020704700005400002008B590F871
:102A90004210222901D0022008BD82684FF48053E1
:102AA0009A4201D1016921B1816A9A421BD04AB18F
:102AB0000AE00268816A5268C2F308020A80816AE9
:102AC000891C08E0026972B10268526802F07F0254
:102AD0000A70816A491C8162C18D491E0904090C72
:102AE000C18503D01BE002685268F1E70168CA683B
:102AF00022F02002CA600168CA6822F48072CA60AB
:102B000001684A6922F001024A61202180F84210DE
:102B100000214163026B012A03D0FFF753FA002022
:102B200008BD016301680C3151E8002F22F010024A
:102B300041E80023002BF5D101680A68D20602D5CE
:102B40000A6849680091818DFFF72CF8E7E70000DB
:102B500070B5044600680169E26821F440511143F0
:102B600001612169A0680843616908432168CA6856
:102B700041F20C639A430243CA6020684169A2692A
:102B800021F44071114341611E492068884202D1FD
:102B9000FEF72EFE01E0FEF71BFE00EBC00101EB8D
:102BA0000012606864218000B2FBF0F3B3FBF1F324
:102BB0006FF018067343B2FBF0F5B2FBF0F605EBCD
:102BC0008305322303EB0515B5FBF1F5B6FBF1F6F2
:102BD00005F0F00505EB0615B2FBF0F6B2FBF0F0E0
:102BE000B0FBF1F06FF01802504306EB800003EBEE
:102BF0000010B0FBF1F0216800F00F00284488605D
:102C000070BD00000038014005480021012200F895
:102C1000201F4170024901F12800FFF7C5B90000EB
:102C20005400002081628285C285002141642221F6
:102C300080F84210016921B10168CA6842F48072CB
:102C4000CA6001684A6942F001024A610068C168CD
:102C500041F02001C1600020704700000148FEF7EC
:102C6000A3BF00007C0000200148FEF79DBF0000CC
:102C7000C4000020F0B5DFF8D8E1012489B09EF847
:102C8000000000287ED001287DD10EF108059EF8B5
:102C900006009EF801C02A7860450FD1A81D017872
:102CA00091420BD141786B78994207D18178AB780A
:102CB000994203D18088A98888426AD08EF806C0DC
:102CC000DEF80800CEF80E00BEF80C000021614BC3
:102CD000AEF812000E46002003EBC007401CC0B245
:102CE0007E548028F8D3491CC9B20829F3D377460B
:102CF000BCF1000F64D058A101A8FDF77DFA0021B6
:102D0000082301AA08460094FFF751FD78780128AE
:102D100068D06A7853A101A8FDF76EFA082301AACA
:102D20000A210020CDF80040FFF741FD7878022805
:102D30006AD0AA784FA101A8FDF75EFA082301AA7C
:102D400014210020CDF80040FFF731FD78780328EA
:102D50006CD0AA884AA101A8FDF74EFA082301AA5F
:102D60001E210020CDF80040FFF721FD082346A2D8
:102D7000282100200094FFF71AFD082345A23221E4
:102D8000009401E007E004E00020FFF710FDFFF7EA
:102D900039FB09B0F0BDFFF793FA01A8FDF718FC65
:102DA00010B901A8FFF722FD08233FA21946002011
:102DB0000094FFF7FCFC082340A210210094E0E7F8
:102DC0000021082341A208460094FFF7F0FC2A786E
:102DD00040A101A8FDF710FA0823002101AA302024
:102DE000009691E708233DA20A2100200094FFF7F6
:102DF000DEFC6A783CA101A8FDF7FEF908230A2150
:102E000001AA402000968FE7082339A21421002050
:102E10000094FFF7CCFCAA7837A101A8FDF7ECF9E4
:102E20000823142101AA302000968DE7082334A23C
:102E30001E2100200094FFF7BAFCAA8832A101A845
:102E4000FDF7DAF908231E2101AA302000968BE74E
:102E500000000020B801002054656D703A20256400
:102E60002043000048756D69646974793A202564CF
:102E700020252500434F323A2025642070706D00D4
:102E80004D51353A202564004B4559313A204E6565
:102E9000787400004B4559323A202B20204B45597D
:102EA000333A202D00000000434F323A202D2D2EC2
:102EB0002D2D206D672F6D33000000004D51353AE8
:102EC000202D2D2D2D2F34303935000054656D7097
:102ED0003A200000256420430000000048756D6919
:102EE000646974793A2000002564202525000000DB
:102EF000434F323A2000000025642070706D0000BE
:102F00004D51353A2000000025640000FEE7090716
:102F1000090E002804DB00F1E02080F8001470475F
:102F200000F00F0000F1E02080F8141D7047000051
:102F300088B0FEF75FFAFFF70BFDFFF721F9FFF707
:102F400001F9FFF783F9FFF7D5F8FFF79BF9FFF7D2
:102F5000E3F9FFF759FE8148FDF72CFC002701A893
:102F6000FDF736FB02004FF0010533D07CA103A82A
:102F7000FDF742F90021082303AA08460095FFF750
:102F800016FCFFF73FFA082379A2194600200095A6
:102F9000FFF70DFC0120FFF769FA082379A2102141
:102FA00000200095FFF703FC0220FFF75FFADFF82F
:102FB000AC91DFF8E0814FF0280B4FF00A0AA9F13D
:102FC00008040026A07808B3A670207830B1012844
:102FD00007D01AE001A8FFF709FCD4E72570667056
:102FE00013E0607830B1012806D0022806D003280B
:102FF00007D00AE0657008E0022000E0032060705E
:1030000003E026705548FDF751FC6571E078D8B3B0
:10301000E6702078012837D1607830B101280FD0D0
:10302000022818D003282ED120E099F80010491C5E
:10303000C9B289F80010282925D989F800A022E012
:1030400099F80100401CC0B289F8010028281AD95B
:1030500089F801A017E099F80200401CC0B289F875
:1030600002000A280FD989F802500CE0B9F80400D0
:10307000643080B2A9F80400B0F57A6F03D94FF438
:10308000FA60A9F804006571207918B126712078DA
:10309000012807D0607910B16671FFF7EBFD207849
:1030A000C8B357E0607830B101280FD0022818D09B
:1030B00003282ED120E099F80010491EC9B289F8E2
:1030C00000100A2925D289F800B022E099F80110F1
:1030D000491EC9B289F801100A291AD289F801B02B
:1030E00017E099F80200401E10F0FF0089F8020076
:1030F0000FD189F802A00CE0B9F80400643880B25E
:10310000A9F80400B0F5FA6F03D24FF47A60A9F879
:1031100004006571C0E7FFE77F1C322F07D300274B
:1031200001A8FDF755FA10B901A8FFF75FFB98F861
:10313000211059B188F82160FFF782FC30B9FFF700
:1031400071FC024600210846FFF732FAFEF7BCFF89
:10315000FFF7C2FA0A20FDF761FF33E708000020FD
:103160004448543131204572723A25640000000011
:10317000434F323A202D2D2E2D2D206D672F6D338C
:10318000000000004D51353A202D2D2D2D2F3430CB
:10319000393500005400002090EA010F48BF81F04B
:1031A000004100F16C81421A3CBF801A89184FEA35
:1031B000D0524FF07F4C1CEA410FA2EBD15318BF05
:1031C0009CEA026F00F03B804FF0004C4CEA00207C
:1031D0004CEA012121FA03FC10EB0C0C1ED202F187
:1031E000FF325FEA1C2040EBC25038BF70471CF032
:1031F0007F0F4FEA400C18BFBCF17F4F38BF7047BC
:10320000C3F12003994008BF20F00100BCF17F4FBB
:1032100038BF7047A0F1C04000F01BB94FEA3C0036
:10322000000A40EBC25028BF1CF0FF0F4FEA400CD1
:10323000E6D018BFBCF17F4F38BF7047EAE79CEA81
:10324000026F05D010EA5C0F08BF00F00040704725
:1032500010B500F0B8F800BF64FBBE3EC10DD1F15F
:103260009E0206DB4FEA002343F0004323FA02F0FC
:103270007047004207D54FEA4001B1F1FE4F02D23C
:103280004FF00000704710B500F09DF8499224807F
:10329000002070476FEA200070470000B0FA80F30A
:1032A00010FA03F2C3F19D030AD0D90501EB1220F5
:1032B000530638BF704700F1010008BF20F001003D
:1032C000704700004FF47F0C1CEAD0121EBF1CEAAE
:1032D000D11392EA0C0F93EA0C0F00F0478090EAAA
:1032E000010F48BF42F480724FF0004C4CEA0020BE
:1032F0004CEA012102EB0302A0FB0113A2F500023C
:10330000002918BF43F001035B0028BF4FEA3303D5
:1033100042EB22425FEA132C4CEBC2502EBFBCEBB7
:10332000436FB2F57C0F70474FEA036CBCF1004F5E
:1033300008BF20F00100B2F57C0F38BF70470BD5F5
:1033400082F0FF0212F5803FC8BF704700F1C04015
:10335000D8BF00F00040704700F5000C5FEA4C0C4D
:1033600048BF7047B0F1C04000F073B890EA010F59
:103370000CEAD11348BF42F48072624538BF6345FE
:1033800004D280EA010000F00040704710B500F060
:103390001AF800BF8900013E00F007B800F009B834
:1033A0005FEA410C5FEA1C6C08D080EA010000F083
:1033B00050B85FEA400C5FEA1C6CF6D14FF0004059
:1033C000A0F5800070470EF1020E2EF0030E5EF89D
:1033D000044B244204D44FEA4102B2F17F4F11D88A
:1033E0004FEA4003B3F17F4F0CD80ED14FEAD07CA7
:1033F000B2F17F4F0CEB4C0C0CF1020C08BF4CEB04
:10340000D17C04E04FF0080C01E04FEAD17C0CEBDA
:103410004C0324FA03F404F00704B4F1040C06D2BC
:103420000EEB840CBDE810404CF0010C6047DFE867
:103430000CF0070802024FF00040A0F5800010BD1C
:103440000846420018BFD2F1807288BF00F00040E9
:1034500010BDFF2141EAD050C005704780F0004008
:1034600090EA010F7FF59FAE81F0004100F007B8B0
:1034700090EA010F48BF81F000413FF594AE421A37
:1034800004D882F00042A0EB020011444FEAD0526F
:103490004FF07F4C1CEA410FA2EBD15318BF9CEABE
:1034A000026F4AD04FF0004C4CEA00204CEA012158
:1034B00021FA03FCB0EB0C0C0FD412F0FE0F36D047
:1034C0005FEA4C001DD5001240EBC25038BF704778
:1034D0001CF03F0F18BF70470BE0A2F101025FEA3A
:1034E0001C2040EBC25038BF70471CF07F0F18BF44
:1034F0007047C3F12003994014BF401E20F0010023
:10350000704780084FEA122308BF7047B0FA80FC6A
:10351000A2EB0C02CCF1280C60FA0CF093EA122F0B
:1035200004BF00EBC25070474FEAC3707047130AE4
:103530005FEADC1008BF7047F6E79CEA026F04D030
:1035400010EA5C0F08BF0020704710B5FFF73BFF83
:1035500040DFF63E81F0004070470102020304059F
:10356000060708090A0B0C0D0E0F101001020203CA
:103570000405060708090A0B0C0D0E0F10100000B9
:103580000000000000000102030406070809000013
:103590000000010203040000000000000000002FF2
:1035A000000000000700070000147F147F140024AF
:1035B0002A7F2A12006264081323003649552250DC
:1035C00000000503000000001C2241000000412211
:1035D0001C000014083E08140008083E08080000FB
:1035E00000A06000000808080808000060600000F3
:1035F000002010080402003E5149453E0000427F71
:103600004000004261514946002141454B310018BC
:1036100014127F10002745454539003C4A4949307E
:103620000001710905030036494949360006494938
:10363000291E000036360000000056360000000843
:103640001422410000141414141400004122140820
:1036500000020151090600324959513E007C121105
:10366000127C007F49494936003E41414122007F9A
:103670004141221C007F49494941007F0909090154
:10368000003E4149497A007F0808087F0000417FD9
:103690004100002040413F01007F08142241007F8B
:1036A00040404040007F020C027F007F0408107FF2
:1036B000003E4141413E007F09090906003E41515B
:1036C000215E007F09192946004649494931000118
:1036D000017F0101003F4040403F001F2040201F6C
:1036E000003F4038403F006314081463000708702F
:1036F000080700615149454300007F4141000055E2
:103700002A552A55000041417F00000402010204AD
:10371000004040404040000001020400002054549A
:103720005478007F484444380038444444200038EA
:103730004444487F00385454541800087E0901025C
:103740000018A4A4A47C007F080404780000447D31
:103750004000004080847D00007F1028440000006D
:10376000417F4000007C04180478007C0804047841
:1037700000384444443800FC24242418001824242D
:1037800018FC007C08040408004854545420000429
:103790003F444020003C4040207C001C2040201C36
:1037A000003C4030403C004428102844001CA0A0AD
:1037B000A07C004464544C441414141414140000E9
:1037C000000000000000000000000000FC000000FD
:1037D000000002000000000C020C020000000000CB
:1037E000000090D0BCD0BC9000030003000018245F
:1037F000FE448C000302070201001824D8B04C805C
:10380000000300010201C038E438E00001020201B7
:103810000202080600000000000000000000000096
:1038200000F80402000000010204000204F8000095
:103830000004020100009060F860900000000100A8
:1038400000002020FC2020000000010000000000FB
:1038500000000000080600000000202020202000BA
:103860000000000000000000000000000002000056
:1038700000000080601C0200040300000000F80447
:103880000404F8000102020201000008FC0000002C
:1038900000020302000018844424180003020202FC
:1038A000020008042424D80001020202010040B0F2
:1038B00088FC80000000000302003C242424C40093
:1038C000010202020100F824242CC00001020202BD
:1038D00001000C04E41C0400000003000000D824D4
:1038E0002424D80001020202010038444444F800B4
:1038F00000030202010000001000000000000200AE
:103900000000000020000000000006000000002071
:1039100050880402000000000102909090909000F6
:103920000000000000000002048850200002010096
:1039300000001804C4241800000002000000F8046D
:10394000E494F80001020202020000E09CF0800012
:1039500002030000030204FC2424D8000203020234
:103960000100F80404040C0001020202010004FC3E
:103970000404F80002030202010004FC24740C0099
:1039800002030202030004FC24740C000203020080
:103990000000F0080444CC4000010202010004FCD5
:1039A0002020FC040203000003020404FC040400C1
:1039B000020203020200000404FC040406040403DF
:1039C000000004FC24D00C0402030200030204FCE7
:1039D00004000000020302020203FC3CC03CFC00A5
:1039E00003000300030004FC30C4FC0402030200D3
:1039F0000300F8040404F80001020202010004FCC0
:103A000024241800020302000000F8848404F80053
:103A100001020207050004FC24649800020302006E
:103A20000302182424448C000302020201000C0447
:103A3000FC040C0000020302000004FC0000FC0473
:103A4000000102020100047C80E01C04000003006D
:103A500000001CE03CE01C00000300030000049C8C
:103A6000609C0400020300030200041CE01C04002C
:103A70000002030200000C84641C04000203020222
:103A800003000000FE020200000007040400000E14
:103A900030C00000000000010200000202FE000031
:103AA00000040407000000040204000000000000FD
:103AB00000000000000000000808080808080000D6
:103AC000020000000000000000000040A0A0C000B4
:103AD00000010202030204FC2020C00000030202D5
:103AE000010000C02020600000010202020000C0AE
:103AF0002024FC0000010202030200C0A0A0C000BC
:103B00000001020202000020F82424040002030243
:103B100002000040A0A0602000070A0A0A0404FC7A
:103B20002020C0000203020003020020E400000085
:103B3000000203020000000020E40000080808075B
:103B4000000004FC80E020200203020003020404C1
:103B5000FC000000020203020200E020E020C0009E
:103B600003000300030020E02020C0000203020045
:103B7000030200C02020C00000010202010020E07A
:103B80002020C000080F0A02010000C02020E00031
:103B90000001020A0F0820E040202000020302007A
:103BA00000000060A0A0200000020202030000202C
:103BB000F820000000000102020020E00020E000E8
:103BC00000010202030220E02080602000000301C7
:103BD00000006080E08060000003000300002060BF
:103BE0008060200002030003020020E020806020AB
:103BF0000808070100000020A06020000002030266
:103C00000200000020DE02000000000704000000A7
:103C100000FF00000000000F00000002DE20000096
:103C2000000407000000020102040402000000007A
:103C30000000000000000000000000000000000084
:103C40000000000000F80000000000000033300019
:103C5000000000100C06100C060000000000000020
:103C6000000040C07840C0784000043F04043F0496
:103C70000400007088FC08300000001820FF211E9E
:103C80000000F008F000E018000000211C031E21D5
:103C90001E0000F00888700000001E212324192750
:103CA000211010160E0000000000000000000000AF
:103CB0000000000000E018040200000000071820C7
:103CC000400000020418E000000000402018070037
:103CD0000000404080F0804040000202010F0102DD
:103CE0000200000000F0000000000101011F0101BE
:103CF0000100000000000000000080B07000000023
:103D000000000000000000000000000101010101AE
:103D10000101000000000000000000303000000041
:103D20000000000000008060180400601806010018
:103D3000000000E010080810E000000F1020201024
:103D40000F00001010F8000000000020203F20208D
:103D50000000007008080888700000302824222124
:103D600030000030088888483000001820202011DA
:103D70000E000000C02010F8000000070424243FBB
:103D8000240000F808888808080000192120201164
:103D90000E0000E0108888180000000F112020118C
:103DA0000E0000380808C83808000000003F000076
:103DB00000000070880808887000001C2221212261
:103DC0001C0000E010080810E00000003122221161
:103DD0000F00000000C0C0000000000000303000F4
:103DE0000000000000800000000000008060000073
:103DF00000000000804020100800000102040810AC
:103E000020004040404040404000040404040404BA
:103E10000400000810204080000000201008040268
:103E20000100007048080808F0000000003036016A
:103E30000000C030C828E810E00007182724231429
:103E40000B000000C038E0000000203C23020227E5
:103E5000382008F8888888700000203F2020201132
:103E60000E00C0300808080838000718202020106D
:103E7000080008F808080810E000203F2020201063
:103E80000F0008F88888E8081000203F2020232031
:103E9000180008F88888E8081000203F2000030078
:103EA0000000C03008080838000007182020221E33
:103EB000020008F808000008F808203F210101214D
:103EC0003F20000808F8080800000020203F2020BC
:103ED000000000000808F8080800C08080807F000B
:103EE000000008F888C028180800203F2001263864
:103EF000200008F8080000000000203F20202020BB
:103F0000300008F8F800F8F80800203F003F003FB4
:103F1000200008F830C00008F808203F20000718EB
:103F20003F00E01008080810E0000F1020202010CB
:103F30000F0008F808080808F000203F21010101DF
:103F40000000E01008080810E0000F182424385082
:103F50004F0008F8888888887000203F2000030CF4
:103F600030200070880808083800003820212122FD
:103F70001C00180808F8080818000000203F20005E
:103F8000000008F808000008F808001F2020202082
:103F90001F000878880000C83808000007380E01A4
:103FA0000000F80800F80008F800033C0700073C90
:103FB0000300081868808068180820302C03032C40
:103FC00030200838C800C83808000000203F200012
:103FD000000010080808C8380800203826212020D2
:103FE0001800000000FE020202000000007F4040B6
:103FF0004000000C30C00000000000000001063846
:10400000C00000020202FE000000004040407F00AD
:104010000000000004020202040000000000000092
:104020000000000000000000000080808080808090
:104030008080000202040000000000000000000078
:1040400000000000808080800000001924222222CD
:104050003F2008F8008080000000003F1120201160
:104060000E000000008080800000000E1120202043
:104070001100000000808088F800000E1120201040
:104080003F200000808080800000001F222222222A
:104090001300008080F0888888180020203F2020AE
:1040A00000000000808080808000006B94949493D6
:1040B000600008F8008080800000203F2100002080
:1040C0003F2000809898000000000020203F202022
:1040D0000000000000809898000000C08080807F71
:1040E000000008F8000080808000203F24022D306E
:1040F0002000000808F8000000000020203F2020D9
:1041000000008080808080808000203F20003F2051
:10411000003F8080008080800000203F2100002040
:104120003F200000808080800000001F2020202091
:104130001F00808000808000000080FFA1202011EF
:104140000E000000008080808000000E112020A062
:10415000FF80808080008080800020203F21200020
:10416000010000008080808080000033242424240B
:104170001900008080E0808000000000001F2020E7
:1041800000008080000000808000001F20202010A0
:104190003F20808080000080808000010E30080673
:1041A000010080800080008080800F300C030C3084
:1041B0000F0000808000808080000020312E0E31B2
:1041C0002000808080000080808080818E701806B2
:1041D000010000808080808080000021302C22211E
:1041E000300000000000807C020200000000003F60
:1041F000404000000000FF00000000000000FF0041
:1042000000000002027C800000000040403F0000EF
:10421000000000060101020204040000000000008A
:10422000000000000000000000000000000000008E
:10423000000000000000000000000000000000007E
:104240000000000000000000000000F0F0F000009E
:1042500000000000000000017F01000000000000DD
:104260000000001C1C1C0000000000008060301CCE
:104270008C60301C0C0000000000000000000000FA
:10428000000000000000000000000000000000002E
:1042900000E00000000000E000000086E69F868647
:1042A0008686E69F860000011F01010101011F01B2
:1042B0000100000080C06020F820E0C00000000085
:1042C00003070C18FF70E18100000000070F1010B9
:1042D0007F100F0700008060206080000000E02059
:1042E00000000F3020309F70DC371030C00000001D
:1042F000100E03000718101807000000C02020E06F
:10430000C0000000000080E01F38E88703C43C04C0
:104310000000070F1810100B070D10100800008088
:104320008C4C38000000000000000000000000007D
:10433000000000000000000000000000000000007D
:10434000000000000000000080E0300804000000D1
:10435000000000FEFF01000000000000000000005F
:10436000030F1820400000040830E0800000000027
:1043700000000000000001FFFE00000000000040FF
:1043800020180F03000000000000000000000000E3
:10439000C00000000000004266663C18FF183C6642
:1043A0006642000000000000030000000000000062
:1043B000000000008000000000000010101010102D
:1043C000FF1010101010000000000000030000009B
:1043D00000000000000000000000000000000000DD
:1043E0000000000000000000000000808C4C38003D
:1043F00000000000000000000000000000000000BD
:10440000000000101010101010101010100000000C
:10441000000000000000000000000000000000009C
:10442000000000000000000000000000000000008C
:10443000000000001C1C1C00000000000000000028
:10444000000000000000E0380C0000000000807058
:104450001C03000000000060380E01000000000096
:104460000000000080C060202060C080000000FECE
:10447000FF010000000001FFFE000001070E181000
:1044800010180E0701000000808080C0E0000000CE
:1044900000000000000000FFFF000000000000001E
:1044A0001010101F1F10101000000080402020204E
:1044B0002060C080000000030300804020381F07F8
:1044C0000000001C1A1918181818181F0000008086
:1044D000C020202060C080000000000303001010F6
:1044E000182FE780000000070F10101010180F079A
:1044F0000000000000000000C0E0F000000000C06C
:10450000B088868180FFFF808000000000000010DE
:10451000101F1F1010000000E060606060606060AD
:10452000000000003F1008080818F0E00000000735
:104530000B101010101C0F030000000080C0402062
:104540002020E0C0000000FCFF211008080818F03F
:10455000E0000001070C18101010080F0300000005
:10456000C0E06060606060E0600000000300000088
:10457000E0180700000000000000001F1F000000FE
:1045800000000080C0602020202060C080000087E4
:10459000EF2C1818303068CF830000070F08101078
:1045A0001010180F07000000C0C020202020C0807D
:1045B0000000001F3F604040402010FFFE00000050
:1045C0000C1C101010080F03000000000000000079
:1045D00000000000000000000000000E0E0E0000B1
:1045E000000000000000001C1C1C00000000000077
:1045F0000000000000000000000000000000000CAF
:104600000C0000000000000000000058380000000E
:1046100000000000000000000080402010000000AA
:10462000102844820100000000000000000000008B
:10463000010204081000000000000000000000005B
:104640000000008484848484848484848400000042
:10465000000000000000000000000000102040806A
:10466000000000000000000000000000018244285B
:10467000100000001008040201000000000000C04B
:1046800020201010101030E0C0000003030000F0E4
:1046900010080C070300000000001C1C1C00000098
:1046A0000000000000C0406020202040C00000FC4E
:1046B000FF01F00E03C1FE03807F0001070E081109
:1046C0001110110904020000000080E0E000000069
:1046D00000000000807C4340477FF88000001018F5
:1046E0001F1000000000131F1C1020E0E0202020FD
:1046F0002060C080000000FFFF10101010182FE78E
:104700008000101F1F1010101010180F070000005D
:1047100080C0402020202060E00000FCFF0100005D
:104720000000000001000001070E1810101008041E
:10473000030020E0E02020202040C080000000FF97
:10474000FF000000000001FFFE00101F1F101010EE
:1047500018080E07010020E0E02020202020206023
:10476000800000FFFF101010107C00000000101FE0
:104770001F10101010101018060020E0E02020205C
:1047800020206060800000FFFF101010107C0000EF
:104790000100101F1F1000000000000000000000BA
:1047A00080C06020202040E0000000FCFF010000ED
:1047B0004040C0C140400001070E181010100F0FFC
:1047C000000020E0E0200000000020E0E02000FFEA
:1047D000FF101010101010FFFF00101F1F1000001E
:1047E0000000101F1F100000202020E0E0202020EB
:1047F00000000000000000FFFF00000000000000BB
:104800001010101F1F1010100000000000002020CA
:1048100020E0E020202000000000000000FFFF005A
:1048200000000060E0808080C07F3F00000020E04A
:10483000E020000020A06020200000FFFF30187C56
:10484000E3C000000000101F1F10000001131F1C18
:10485000181020E0E020000000000000000000FF31
:10486000FF000000000000000000101F1F101010CB
:1048700010101018060020E0E0E000000000E0E06A
:10488000E02000FF013FFEC0E01E01FFFF00101FFF
:104890001000031F0300101F1F1020E0E0C00000E5
:1048A00000000020E02000FF0003071C78E08000EB
:1048B000FF00101F100000000000030F1F00000089
:1048C00080C060202060C080000000FEFF0100006A
:1048D000000000FFFE000001070E181010180C0762
:1048E000010020E0E0202020202060C0800000FFA8
:1048F000FF2020202020301F0F00101F1F1000005D
:10490000000000000000000080C060202060C08027
:10491000000000FEFF010000000000FFFE0000019B
:10492000070E1111133C7C67210020E0E0202020BD
:10493000202060C0800000FFFF101030F0D0080F72
:104940000700101F1F10000000030F1C1010008034
:10495000C060202020204040E00000070F0C181805
:10496000303060E08100001F0C0810101010180F8C
:1049700007008060202020E0E020202060800100EF
:10498000000000FFFF000000000100000000101FF9
:104990001F100000000020E0E020000000000020C8
:1049A000E02000FFFF00000000000000FF00000703
:1049B0000F1810101010100807002060E0E0200011
:1049C000000020E060200000077FF88000807C036A
:1049D000000000000000071F1C070000000020E08E
:1049E000E02000E0E0200020E0200007FFF8E01FCA
:1049F000FFFCE01F00000000031F0300011F030075
:104A00000000002060E0A0000020E0602000000026
:104A100000038F7CF8C6010000000010181E130070
:104A200001171F1810002060E0E02000000020E0C7
:104A30006020000001073EF8E018070000000000B9
:104A40000010101F1F1010000000008060202020A8
:104A500020A0E0E0200000000000C0F03E0F0300B6
:104A6000000000101C1F1710101010180600000086
:104A7000000000FC0404040404000000000000FF27
:104A800000000000000000000000007F40404040A7
:104A90004000000010E000000000000000000000E6
:104AA0000000031C60800000000000000000000007
:104AB00000030C70800000000404040404FC0000E7
:104AC000000000000000000000FF000000000000E7
:104AD00040404040407F0000000000000010080CF3
:104AE000040C08100000000000000000000000009E
:104AF00000000000000000000000000000000000B6
:104B000000000000000000000000000000000000A5
:104B10000000000000008080808080808080808095
:104B2000808000000004040808000000000000006D
:104B30000000000000000000000000000000000075
:104B40000000000000000000000000000000000065
:104B50000000000098D844642424FCF80000000FF2
:104B60001F18101010081F1F10180020E0F0000080
:104B70000000000000000000FFFF180804040CF80B
:104B8000F00000001F0F18101010180F0300000095
:104B90000000000000000000000000E0F81804041D
:104BA000043C3800000000030F0C10101010080621
:104BB00000000000000000000020E0F0000000E025
:104BC000F81C04040408FFFF000000030F18101075
:104BD00010081F0F08000000000000000000000087
:104BE00000000000E0F8484444444C7870000000A5
:104BF000030F0C181010100804000000000080C003
:104C0000602020E0C00000040404FFFF040404044A
:104C10000000000010101F1F101010000000000006
:104C200000000000000000000000000070F88C048C
:104C3000048CF874040C007076CF8D8D8D89C87843
:104C400070000020E0F00000000000000000000004
:104C5000FFFF08040404FCF8000000101F1F1000F0
:104C600000101F1F10000000000000606000000026
:104C700000000000040404FCFC0000000000000030
:104C80001010101F1F101010000000000000000086
:104C900000606000000000000000040404FCFC0050
:104CA00000000000C0C08080C07F3F0000000020E6
:104CB000E0F000000000000000000000FFFF80C0E6
:104CC000F41C0404000000101F1F1100031F1C101F
:104CD00010000000202020E0F00000000000000094
:104CE000000000FFFF000000000000001010101F77
:104CF0001F10101000000000000000000000000065
:104D0000000004FCFC0804FCFC0804FCFC00101F70
:104D10001F10001F1F10001F1F10000000000000C8
:104D20000000000000000004FCFC08080404FCF87B
:104D3000000000101F1F100000101F1F10000000B7
:104D40000000000000000000000000E0F0180C046B
:104D5000040C18F0E00000030F0C101010100C0FE2
:104D6000030000000000000000000000000000043C
:104D7000FCFC080404040CF8F0000080FFFF88909D
:104D800010101C0F030000000000000000000000D5
:104D9000000000E0F81C04040408F8FC0000000314
:104DA0000F1810109088FFFF800000000000000026
:104DB000000000000000040404FCFC100804040CC3
:104DC0000C001010101F1F10101000000000000039
:104DD0000000000000000000000000003078CCC49B
:104DE0008484840C1C0000001E1810101011190F70
:104DF00006000000000000C00000000000000004E9
:104E00000404FFFF040404000000000000000F1F62
:104E10001010100C00000000000000000000000056
:104E200000000004FCFE00000004FCFE0000000086
:104E30000F1F181010081F0F0800000000000000CE
:104E400000000000000000040C3CFCC40000C43C56
:104E50000C0400000000010F1E0E01000000000005
:104E600000000000000000000000043CFCC400E45E
:104E70007CFC84807C040000071F070000071F07DC
:104E8000000000000000000000000000000000041E
:104E9000041C7CE4C0341C0404000010101C160127
:104EA000131F1C181000000000000000000000008C
:104EB000000000040C3CFCC400C43C0404000000DE
:104EC000C080C1370E01000000000000000000009B
:104ED00000000000000000001C0404C4F47C1C045A
:104EE00000000000101C1F17111010180E00000009
:104EF0000000000000F80C0400000000000000109A
:104F000028EF00000000000000000000003F6040AB
:104F10000000000000000000FF0000000000000092
:104F200000000000FF000000000000000000000082
:104F3000FF00000000000000040CF800000000006A
:104F4000000000000000EF2810000000000000003A
:104F500040603F000000000000000018060202044C
:104F600008102020300800000000000000000000B1
:104F70000000000000000000000000000000000031
:104F8000A04F0008000000202400000028010008B5
:104F9000C44F000824000020740C000044010008E5
:104FA00000000000000000001E140200B80B1E14D8
:104FB0000200B80B0100000010000000000000001B
:044FC00000127A0061
:04000005080000ED02
:00000001FF
